{
  "address": "0xEA3c7f86B7Ca853addEddc06cE418E9D30CE6720",
  "abi": [
    {
      "anonymous": false,
      "inputs": [
        {
          "indexed": true,
          "internalType": "address",
          "name": "previousOwner",
          "type": "address"
        },
        {
          "indexed": true,
          "internalType": "address",
          "name": "newOwner",
          "type": "address"
        }
      ],
      "name": "OwnershipTransferred",
      "type": "event"
    },
    {
      "inputs": [],
      "name": "RATE_DIVIDER",
      "outputs": [
        {
          "internalType": "uint256",
          "name": "",
          "type": "uint256"
        }
      ],
      "stateMutability": "view",
      "type": "function"
    },
    {
      "inputs": [],
      "name": "SORTY",
      "outputs": [
        {
          "internalType": "contract IERC20Metadata",
          "name": "",
          "type": "address"
        }
      ],
      "stateMutability": "view",
      "type": "function"
    },
    {
      "inputs": [
        {
          "internalType": "contract IERC20Metadata",
          "name": "token",
          "type": "address"
        },
        {
          "internalType": "uint256",
          "name": "amount",
          "type": "uint256"
        }
      ],
      "name": "depositAndDistribute",
      "outputs": [],
      "stateMutability": "nonpayable",
      "type": "function"
    },
    {
      "inputs": [
        {
          "internalType": "contract IERC20Metadata",
          "name": "token",
          "type": "address"
        }
      ],
      "name": "distribute",
      "outputs": [],
      "stateMutability": "nonpayable",
      "type": "function"
    },
    {
      "inputs": [
        {
          "internalType": "uint256",
          "name": "",
          "type": "uint256"
        }
      ],
      "name": "holders",
      "outputs": [
        {
          "internalType": "address",
          "name": "",
          "type": "address"
        }
      ],
      "stateMutability": "view",
      "type": "function"
    },
    {
      "inputs": [],
      "name": "holdersLength",
      "outputs": [
        {
          "internalType": "uint256",
          "name": "",
          "type": "uint256"
        }
      ],
      "stateMutability": "view",
      "type": "function"
    },
    {
      "inputs": [],
      "name": "owner",
      "outputs": [
        {
          "internalType": "address",
          "name": "",
          "type": "address"
        }
      ],
      "stateMutability": "view",
      "type": "function"
    },
    {
      "inputs": [],
      "name": "renounceOwnership",
      "outputs": [],
      "stateMutability": "nonpayable",
      "type": "function"
    },
    {
      "inputs": [
        {
          "internalType": "contract IERC1155",
          "name": "token",
          "type": "address"
        },
        {
          "internalType": "uint256",
          "name": "tokenId",
          "type": "uint256"
        },
        {
          "internalType": "uint256",
          "name": "amount",
          "type": "uint256"
        }
      ],
      "name": "rescueERC1155",
      "outputs": [],
      "stateMutability": "nonpayable",
      "type": "function"
    },
    {
      "inputs": [
        {
          "internalType": "contract IERC1155",
          "name": "token",
          "type": "address"
        },
        {
          "internalType": "uint256[]",
          "name": "tokenIds",
          "type": "uint256[]"
        },
        {
          "internalType": "uint256[]",
          "name": "amounts",
          "type": "uint256[]"
        }
      ],
      "name": "rescueERC1155Batch",
      "outputs": [],
      "stateMutability": "nonpayable",
      "type": "function"
    },
    {
      "inputs": [
        {
          "internalType": "contract IERC20",
          "name": "token",
          "type": "address"
        },
        {
          "internalType": "uint256",
          "name": "amount",
          "type": "uint256"
        }
      ],
      "name": "rescueERC20",
      "outputs": [],
      "stateMutability": "nonpayable",
      "type": "function"
    },
    {
      "inputs": [
        {
          "internalType": "contract IERC721",
          "name": "token",
          "type": "address"
        },
        {
          "internalType": "uint256",
          "name": "tokenId",
          "type": "uint256"
        }
      ],
      "name": "rescueERC721",
      "outputs": [],
      "stateMutability": "nonpayable",
      "type": "function"
    },
    {
      "inputs": [
        {
          "internalType": "address[]",
          "name": "holders_",
          "type": "address[]"
        }
      ],
      "name": "setHolders",
      "outputs": [],
      "stateMutability": "nonpayable",
      "type": "function"
    },
    {
      "inputs": [
        {
          "internalType": "address",
          "name": "newOwner",
          "type": "address"
        }
      ],
      "name": "transferOwnership",
      "outputs": [],
      "stateMutability": "nonpayable",
      "type": "function"
    }
  ],
  "transactionHash": "0xa781451716e3b074ea699ad8e3d3b09e53ba2499f4e783b6df1a9dcc19731bb5",
  "args": [],
  "numDeployments": 1,
  "solcInputHash": "f5fb78c791a021481e6c66b8f16f5741",
  "bytecode": "0x608060405234801561001057600080fd5b5061001a3361001f565b61006f565b600080546001600160a01b038381166001600160a01b0319831681178455604051919092169283917f8be0079c531659141344cd1fd0a4f28419497f9722a3daafe3b4186f6b6457e09190a35050565b61111e8061007e6000396000f3fe608060405234801561001057600080fd5b50600436106100ea5760003560e01c80637ec9e4911161008c578063cc83cccf11610066578063cc83cccf146101c2578063d7981834146101d5578063d8942295146101e8578063f2fde38b146101fb57600080fd5b80637ec9e4911461018f5780638cd4426d1461019e5780638da5cb5b146101b157600080fd5b8063512bb6cd116100c8578063512bb6cd1461014c57806359865d501461016157806363453ae114610174578063715018a61461018757600080fd5b806302bdfb5f146100ef57806314267206146101065780632a11ced014610139575b600080fd5b6001545b6040519081526020015b60405180910390f35b6101217341014b9a82cc0ea6bac76f8406bfbec65adc074781565b6040516001600160a01b0390911681526020016100fd565b610121610147366004610ca5565b61020e565b61015f61015a366004610cf9565b610238565b005b61015f61016f366004610dbe565b6102bb565b61015f610182366004610dea565b61041c565b61015f610428565b6100f3670de0b6b3a764000081565b61015f6101ac366004610dbe565b61043c565b6000546001600160a01b0316610121565b61015f6101d0366004610e0e565b610458565b61015f6101e3366004610dbe565b6104e0565b61015f6101f6366004610e8f565b610552565b61015f610209366004610dea565b6105c9565b6001818154811061021e57600080fd5b6000918252602090912001546001600160a01b0316905081565b61024061063f565b61024c60016000610c73565b60005b81518110156102b757600182828151811061026c5761026c610f12565b60209081029190910181015182546001810184556000938452919092200180546001600160a01b0319166001600160a01b039092169190911790556102b081610f3e565b905061024f565b5050565b6040516370a0823160e01b81523060048201526001600160a01b038316906370a0823190602401602060405180830381865afa1580156102ff573d6000803e3d6000fd5b505050506040513d601f19601f820116820180604052508101906103239190610f57565b1561039b5760405162461bcd60e51b815260206004820152603a60248201527f6465706f736974416e64446973747269627574653a20696e697469616c20626160448201527f6c616e6365206f6620746f6b656e2073686f756c64206265203000000000000060648201526084015b60405180910390fd5b6040516323b872dd60e01b8152336004820152306024820152604481018290526001600160a01b038316906323b872dd906064016020604051808303816000875af11580156103ee573d6000803e3d6000fd5b505050506040513d601f19601f820116820180604052508101906104129190610f70565b506102b782610699565b61042581610699565b50565b61043061063f565b61043a600061096a565b565b61044461063f565b6102b76001600160a01b03831633836109ba565b61046061063f565b604051637921219560e11b8152306004820152336024820152604481018390526064810182905260a06084820152600060a48201526001600160a01b0384169063f242432a9060c401600060405180830381600087803b1580156104c357600080fd5b505af11580156104d7573d6000803e3d6000fd5b50505050505050565b6104e861063f565b604051632142170760e11b8152306004820152336024820152604481018290526001600160a01b038316906342842e0e90606401600060405180830381600087803b15801561053657600080fd5b505af115801561054a573d6000803e3d6000fd5b505050505050565b61055a61063f565b604051631759616b60e11b81526001600160a01b03861690632eb2c2d69061059090309033908990899089908990600401610fc4565b600060405180830381600087803b1580156105aa57600080fd5b505af11580156105be573d6000803e3d6000fd5b505050505050505050565b6105d161063f565b6001600160a01b0381166106365760405162461bcd60e51b815260206004820152602660248201527f4f776e61626c653a206e6577206f776e657220697320746865207a65726f206160448201526564647265737360d01b6064820152608401610392565b6104258161096a565b6000546001600160a01b0316331461043a5760405162461bcd60e51b815260206004820181905260248201527f4f776e61626c653a2063616c6c6572206973206e6f7420746865206f776e65726044820152606401610392565b6040516370a0823160e01b81523060048201526000906001600160a01b038316906370a0823190602401602060405180830381865afa1580156106e0573d6000803e3d6000fd5b505050506040513d601f19601f820116820180604052508101906107049190610f57565b60015490915060009067ffffffffffffffff81111561072557610725610cbe565b60405190808252806020026020018201604052801561074e578160200160208202803683370190505b5090506000805b6001548110156108495760007341014b9a82cc0ea6bac76f8406bfbec65adc07476001600160a01b03166370a082316001848154811061079757610797610f12565b60009182526020909120015460405160e083901b6001600160e01b03191681526001600160a01b039091166004820152602401602060405180830381865afa1580156107e7573d6000803e3d6000fd5b505050506040513d601f19601f8201168201806040525081019061080b9190610f57565b90508084838151811061082057610820610f12565b60209081029190910101526108358184611023565b9250508061084290610f3e565b9050610755565b5060005b600154811015610963576000670de0b6b3a764000083670de0b6b3a76400008787868151811061087f5761087f610f12565b6020026020010151610891919061103c565b61089b919061103c565b6108a59190611053565b6108af9190611053565b9050856001600160a01b031663a9059cbb600184815481106108d3576108d3610f12565b60009182526020909120015460405160e083901b6001600160e01b03191681526001600160a01b039091166004820152602481018490526044016020604051808303816000875af115801561092c573d6000803e3d6000fd5b505050506040513d601f19601f820116820180604052508101906109509190610f70565b50508061095c90610f3e565b905061084d565b5050505050565b600080546001600160a01b038381166001600160a01b0319831681178455604051919092169283917f8be0079c531659141344cd1fd0a4f28419497f9722a3daafe3b4186f6b6457e09190a35050565b604080516001600160a01b038416602482015260448082018490528251808303909101815260649091019091526020810180516001600160e01b031663a9059cbb60e01b179052610a0c908490610a11565b505050565b6000610a66826040518060400160405280602081526020017f5361666545524332303a206c6f772d6c6576656c2063616c6c206661696c6564815250856001600160a01b0316610ae39092919063ffffffff16565b805190915015610a0c5780806020019051810190610a849190610f70565b610a0c5760405162461bcd60e51b815260206004820152602a60248201527f5361666545524332303a204552433230206f7065726174696f6e20646964206e6044820152691bdd081cdd58d8d9595960b21b6064820152608401610392565b6060610af28484600085610afa565b949350505050565b606082471015610b5b5760405162461bcd60e51b815260206004820152602660248201527f416464726573733a20696e73756666696369656e742062616c616e636520666f6044820152651c8818d85b1b60d21b6064820152608401610392565b600080866001600160a01b03168587604051610b779190611099565b60006040518083038185875af1925050503d8060008114610bb4576040519150601f19603f3d011682016040523d82523d6000602084013e610bb9565b606091505b5091509150610bca87838387610bd5565b979650505050505050565b60608315610c44578251600003610c3d576001600160a01b0385163b610c3d5760405162461bcd60e51b815260206004820152601d60248201527f416464726573733a2063616c6c20746f206e6f6e2d636f6e74726163740000006044820152606401610392565b5081610af2565b610af28383815115610c595781518083602001fd5b8060405162461bcd60e51b815260040161039291906110b5565b508054600082559060005260206000209081019061042591905b80821115610ca15760008155600101610c8d565b5090565b600060208284031215610cb757600080fd5b5035919050565b634e487b7160e01b600052604160045260246000fd5b6001600160a01b038116811461042557600080fd5b8035610cf481610cd4565b919050565b60006020808385031215610d0c57600080fd5b823567ffffffffffffffff80821115610d2457600080fd5b818501915085601f830112610d3857600080fd5b813581811115610d4a57610d4a610cbe565b8060051b604051601f19603f83011681018181108582111715610d6f57610d6f610cbe565b604052918252848201925083810185019188831115610d8d57600080fd5b938501935b82851015610db257610da385610ce9565b84529385019392850192610d92565b98975050505050505050565b60008060408385031215610dd157600080fd5b8235610ddc81610cd4565b946020939093013593505050565b600060208284031215610dfc57600080fd5b8135610e0781610cd4565b9392505050565b600080600060608486031215610e2357600080fd5b8335610e2e81610cd4565b95602085013595506040909401359392505050565b60008083601f840112610e5557600080fd5b50813567ffffffffffffffff811115610e6d57600080fd5b6020830191508360208260051b8501011115610e8857600080fd5b9250929050565b600080600080600060608688031215610ea757600080fd5b8535610eb281610cd4565b9450602086013567ffffffffffffffff80821115610ecf57600080fd5b610edb89838a01610e43565b90965094506040880135915080821115610ef457600080fd5b50610f0188828901610e43565b969995985093965092949392505050565b634e487b7160e01b600052603260045260246000fd5b634e487b7160e01b600052601160045260246000fd5b600060018201610f5057610f50610f28565b5060010190565b600060208284031215610f6957600080fd5b5051919050565b600060208284031215610f8257600080fd5b81518015158114610e0757600080fd5b81835260006001600160fb1b03831115610fab57600080fd5b8260051b80836020870137939093016020019392505050565b6001600160a01b0387811682528616602082015260a060408201819052600090610ff19083018688610f92565b8281036060840152611004818587610f92565b8381036080909401939093525050600081526020019695505050505050565b8082018082111561103657611036610f28565b92915050565b808202811582820484141761103657611036610f28565b60008261107057634e487b7160e01b600052601260045260246000fd5b500490565b60005b83811015611090578181015183820152602001611078565b50506000910152565b600082516110ab818460208701611075565b9190910192915050565b60208152600082518060208401526110d4816040850160208701611075565b601f01601f1916919091016040019291505056fea264697066735822122056d33171332cf08655bde1b42529f670476d5868c529b15dcef974100dbfb63964736f6c63430008110033",
  "devdoc": {
    "kind": "dev",
    "methods": {
      "owner()": {
        "details": "Returns the address of the current owner."
      },
      "renounceOwnership()": {
        "details": "Leaves the contract without owner. It will not be possible to call `onlyOwner` functions anymore. Can only be called by the current owner. NOTE: Renouncing ownership will leave the contract without an owner, thereby removing any functionality that is only available to the owner."
      },
      "transferOwnership(address)": {
        "details": "Transfers ownership of the contract to a new account (`newOwner`). Can only be called by the current owner."
      }
    },
    "version": 1
  },
  "userdoc": {
    "kind": "user",
    "methods": {},
    "version": 1
  },
  "storageLayout": {
    "storage": [
      {
        "astId": 7,
        "contract": "contracts/SortyRevenueDistributor.sol:SortyRevenueDistributor",
        "label": "_owner",
        "offset": 0,
        "slot": "0",
        "type": "t_address"
      },
      {
        "astId": 1159,
        "contract": "contracts/SortyRevenueDistributor.sol:SortyRevenueDistributor",
        "label": "holders",
        "offset": 0,
        "slot": "1",
        "type": "t_array(t_address)dyn_storage"
      }
    ],
    "types": {
      "t_address": {
        "encoding": "inplace",
        "label": "address",
        "numberOfBytes": "20"
      },
      "t_array(t_address)dyn_storage": {
        "base": "t_address",
        "encoding": "dynamic_array",
        "label": "address[]",
        "numberOfBytes": "32"
      }
    }
  }
}